8=FIX.4.2|9=73|35=A|34=1|49=server|52=20210404-03:56:13.536|56=client|98=0|108=30|141=Y|10=062|8=FIX.4.2|9=115|35=D|34=2|49=server|52=20210404-03:56:20.130|56=client|11=124|21=3|40=1|54=1|55=SSSSSS.J1|60=20210404-03:56:20.130|10=218|8=FIX.4.2|9=115|35=D|34=3|49=server|52=20210404-03:56:20.132|56=client|11=125|21=3|40=1|54=1|55=SSSSSS.J2|60=20210404-03:56:20.131|10=224|8=FIX.4.2|9=115|35=D|34=4|49=server|52=20210404-03:56:20.135|56=client|11=126|21=3|40=1|54=1|55=SSSSSS.J3|60=20210404-03:56:20.134|10=233|8=FIX.4.2|9=115|35=D|34=5|49=server|52=20210404-03:56:20.137|56=client|11=127|21=3|40=1|54=1|55=SSSSSS.J4|60=20210404-03:56:20.137|10=241|8=FIX.4.2|9=115|35=D|34=6|49=server|52=20210404-03:56:20.139|56=client|11=128|21=3|40=1|54=1|55=SSSSSS.J5|60=20210404-03:56:20.138|10=247|8=FIX.4.2|9=115|35=D|34=7|49=server|52=20210404-03:56:20.140|56=client|11=129|21=3|40=1|54=1|55=SSSSSS.J6|60=20210404-03:56:20.140|10=235|8=FIX.4.2|9=115|35=D|34=8|49=server|52=20210404-03:56:20.142|56=client|11=130|21=3|40=1|54=1|55=SSSSSS.J7|60=20210404-03:56:20.141|10=232|8=FIX.4.2|9=115|35=D|34=9|49=server|52=20210404-03:56:20.143|56=client|11=131|21=3|40=1|54=1|55=SSSSSS.J8|60=20210404-03:56:20.143|10=238|8=FIX.4.2|9=116|35=D|34=10|49=server|52=20210404-03:56:20.144|56=client|11=132|21=3|40=1|54=1|55=SSSSSS.J9|60=20210404-03:56:20.144|10=027|